{"abi":[{"type":"constructor","inputs":[{"name":"activityDuration","type":"uint256","internalType":"uint256"}],"stateMutability":"nonpayable"},{"type":"receive","stateMutability":"payable"},{"type":"function","name":"STAKE_AMOUNT","inputs":[],"outputs":[{"name":"","type":"uint256","internalType":"uint256"}],"stateMutability":"view"},{"type":"function","name":"activityEndTime","inputs":[],"outputs":[{"name":"","type":"uint256","internalType":"uint256"}],"stateMutability":"view"},{"type":"function","name":"addMember","inputs":[{"name":"member","type":"address","internalType":"address"},{"name":"teamId","type":"uint256","internalType":"uint256"},{"name":"name","type":"string","internalType":"string"},{"name":"role","type":"uint256","internalType":"uint256"},{"name":"tokenURI","type":"string","internalType":"string"}],"outputs":[],"stateMutability":"nonpayable"},{"type":"function","name":"addMemberNFTself","inputs":[{"name":"teamId","type":"uint256","internalType":"uint256"},{"name":"name","type":"string","internalType":"string"},{"name":"role","type":"uint256","internalType":"uint256"},{"name":"tokenURI","type":"string","internalType":"string"}],"outputs":[],"stateMutability":"nonpayable"},{"type":"function","name":"checkUpkeep","inputs":[{"name":"","type":"bytes","internalType":"bytes"}],"outputs":[{"name":"upkeepNeeded","type":"bool","internalType":"bool"},{"name":"performData","type":"bytes","internalType":"bytes"}],"stateMutability":"view"},{"type":"function","name":"createTeam","inputs":[{"name":"name","type":"string","internalType":"string"},{"name":"tokenURI","type":"string","internalType":"string"}],"outputs":[{"name":"","type":"uint256","internalType":"uint256"}],"stateMutability":"payable"},{"type":"function","name":"getTeamMemberIds","inputs":[{"name":"teamId","type":"uint256","internalType":"uint256"}],"outputs":[{"name":"","type":"uint256[]","internalType":"uint256[]"}],"stateMutability":"view"},{"type":"function","name":"memberNFT","inputs":[],"outputs":[{"name":"","type":"address","internalType":"contract MemberNFT"}],"stateMutability":"view"},{"type":"function","name":"owner","inputs":[],"outputs":[{"name":"","type":"address","internalType":"address"}],"stateMutability":"view"},{"type":"function","name":"performUpkeep","inputs":[{"name":"","type":"bytes","internalType":"bytes"}],"outputs":[],"stateMutability":"nonpayable"},{"type":"function","name":"renounceOwnership","inputs":[],"outputs":[],"stateMutability":"nonpayable"},{"type":"function","name":"teamMemberIds","inputs":[{"name":"","type":"uint256","internalType":"uint256"},{"name":"","type":"uint256","internalType":"uint256"}],"outputs":[{"name":"","type":"uint256","internalType":"uint256"}],"stateMutability":"view"},{"type":"function","name":"teamNFT","inputs":[],"outputs":[{"name":"","type":"address","internalType":"contract TeamNFT"}],"stateMutability":"view"},{"type":"function","name":"teamStakes","inputs":[{"name":"","type":"uint256","internalType":"uint256"}],"outputs":[{"name":"","type":"uint256","internalType":"uint256"}],"stateMutability":"view"},{"type":"function","name":"transferOwnership","inputs":[{"name":"newOwner","type":"address","internalType":"address"}],"outputs":[],"stateMutability":"nonpayable"},{"type":"function","name":"updateActivityEndTime","inputs":[{"name":"newEndTime","type":"uint256","internalType":"uint256"}],"outputs":[],"stateMutability":"nonpayable"},{"type":"function","name":"updateTeamMemberURIs","inputs":[{"name":"teamId","type":"uint256","internalType":"uint256"},{"name":"teamName","type":"string","internalType":"string"},{"name":"newTokenURIs","type":"string[]","internalType":"string[]"}],"outputs":[],"stateMutability":"nonpayable"},{"type":"event","name":"ActivityEnded","inputs":[{"name":"timestamp","type":"uint256","indexed":false,"internalType":"uint256"},{"name":"teamsCount","type":"uint256","indexed":false,"internalType":"uint256"}],"anonymous":false},{"type":"event","name":"MemberAdded","inputs":[{"name":"member","type":"address","indexed":true,"internalType":"address"},{"name":"teamId","type":"uint256","indexed":true,"internalType":"uint256"},{"name":"name","type":"string","indexed":false,"internalType":"string"},{"name":"role","type":"uint256","indexed":false,"internalType":"uint256"},{"name":"memberId","type":"uint256","indexed":false,"internalType":"uint256"},{"name":"tokenURI","type":"string","indexed":false,"internalType":"string"}],"anonymous":false},{"type":"event","name":"OwnershipTransferred","inputs":[{"name":"previousOwner","type":"address","indexed":true,"internalType":"address"},{"name":"newOwner","type":"address","indexed":true,"internalType":"address"}],"anonymous":false},{"type":"event","name":"TeamCreated","inputs":[{"name":"captain","type":"address","indexed":true,"internalType":"address"},{"name":"teamId","type":"uint256","indexed":true,"internalType":"uint256"},{"name":"name","type":"string","indexed":false,"internalType":"string"},{"name":"tokenURI","type":"string","indexed":false,"internalType":"string"}],"anonymous":false},{"type":"event","name":"TeamDissolved","inputs":[{"name":"teamId","type":"uint256","indexed":true,"internalType":"uint256"},{"name":"captain","type":"address","indexed":true,"internalType":"address"},{"name":"returnedAmount","type":"uint256","indexed":false,"internalType":"uint256"}],"anonymous":false},{"type":"event","name":"TeamURIsUpdated","inputs":[{"name":"teamId","type":"uint256","indexed":true,"internalType":"uint256"},{"name":"teamName","type":"string","indexed":false,"internalType":"string"},{"name":"memberIds","type":"uint256[]","indexed":false,"internalType":"uint256[]"}],"anonymous":false},{"type":"error","name":"IncorrectStakeAmount","inputs":[]},{"type":"error","name":"InvalidArrayLength","inputs":[]},{"type":"error","name":"NoStakeFound","inputs":[]},{"type":"error","name":"OnlySimulatedBackend","inputs":[]},{"type":"error","name":"OwnableInvalidOwner","inputs":[{"name":"owner","type":"address","internalType":"address"}]},{"type":"error","name":"OwnableUnauthorizedAccount","inputs":[{"name":"account","type":"address","internalType":"address"}]},{"type":"error","name":"ReentrancyGuardReentrantCall","inputs":[]},{"type":"error","name":"StakeReturnFailed","inputs":[]},{"type":"error","name":"TeamNotReadyForDissolution","inputs":[]},{"type":"error","name":"UnauthorizedCaptain","inputs":[]}],"bytecode":{"object":"0x608060405234801561000f575f5ffd5b50604051618051380380618051833981810160405281019061003191906102c5565b3360015f819055505f73ffffffffffffffffffffffffffffffffffffffff168173ffffffffffffffffffffffffffffffffffffffff16036100a9575f6040517f1e4fbdf70000000000000000000000000000000000000000000000000000000081526004016100a0919061032f565b60405180910390fd5b6100b8816101b160201b60201c565b50306040516100c690610274565b6100d0919061032f565b604051809103905ff0801580156100e9573d5f5f3e3d5ffd5b5060025f6101000a81548173ffffffffffffffffffffffffffffffffffffffff021916908373ffffffffffffffffffffffffffffffffffffffff1602179055503060405161013690610281565b610140919061032f565b604051809103905ff080158015610159573d5f5f3e3d5ffd5b5060035f6101000a81548173ffffffffffffffffffffffffffffffffffffffff021916908373ffffffffffffffffffffffffffffffffffffffff16021790555080426101a59190610375565b600581905550506103a8565b5f60015f9054906101000a900473ffffffffffffffffffffffffffffffffffffffff1690508160015f6101000a81548173ffffffffffffffffffffffffffffffffffffffff021916908373ffffffffffffffffffffffffffffffffffffffff1602179055508173ffffffffffffffffffffffffffffffffffffffff168173ffffffffffffffffffffffffffffffffffffffff167f8be0079c531659141344cd1fd0a4f28419497f9722a3daafe3b4186f6b6457e060405160405180910390a35050565b612dd08061241e83390190565b612e63806151ee83390190565b5f5ffd5b5f819050919050565b6102a481610292565b81146102ae575f5ffd5b50565b5f815190506102bf8161029b565b92915050565b5f602082840312156102da576102d961028e565b5b5f6102e7848285016102b1565b91505092915050565b5f73ffffffffffffffffffffffffffffffffffffffff82169050919050565b5f610319826102f0565b9050919050565b6103298161030f565b82525050565b5f6020820190506103425f830184610320565b92915050565b7f4e487b71000000000000000000000000000000000000000000000000000000005f52601160045260245ffd5b5f61037f82610292565b915061038a83610292565b92508282019050808211156103a2576103a1610348565b5b92915050565b612069806103b55f395ff3fe608060405260043610610101575f3560e01c80638844d00211610094578063aa6da89411610063578063aa6da89414610325578063adc888d31461034f578063f2d72c3a14610377578063f2fde38b146103b3578063faf5625f146103db57610108565b80638844d0021461026d5780638da5cb5b146102955780638e851a7c146102bf578063a04b0a13146102e957610108565b80635ea2c238116100d05780635ea2c238146101c85780635f20e6ba146101f05780636e04ff0d1461021a578063715018a61461025757610108565b806301a682c11461010c5780631d11e2021461013c5780634585e33b1461016457806351f25af01461018c57610108565b3661010857005b5f5ffd5b61012660048036038101906101219190611563565b610405565b60405161013391906115f1565b60405180910390f35b348015610147575f5ffd5b50610162600480360381019061015d919061168e565b610569565b005b34801561016f575f5ffd5b5061018a6004803603810190610185919061179a565b6107ad565b005b348015610197575f5ffd5b506101b260048036038101906101ad91906117e5565b610ae8565b6040516101bf91906115f1565b60405180910390f35b3480156101d3575f5ffd5b506101ee60048036038101906101e99190611823565b610b13565b005b3480156101fb575f5ffd5b50610204610d56565b60405161021191906115f1565b60405180910390f35b348015610225575f5ffd5b50610240600480360381019061023b919061179a565b610d5c565b60405161024e929190611939565b60405180910390f35b348015610262575f5ffd5b5061026b610f08565b005b348015610278575f5ffd5b50610293600480360381019061028e9190611967565b610f1b565b005b3480156102a0575f5ffd5b506102a9610f2d565b6040516102b691906119a1565b60405180910390f35b3480156102ca575f5ffd5b506102d3610f55565b6040516102e09190611a15565b60405180910390f35b3480156102f4575f5ffd5b5061030f600480360381019061030a9190611967565b610f7a565b60405161031c91906115f1565b60405180910390f35b348015610330575f5ffd5b50610339610f8f565b6040516103469190611a4e565b60405180910390f35b34801561035a575f5ffd5b5061037560048036038101906103709190611b45565b610fb4565b005b348015610382575f5ffd5b5061039d60048036038101906103989190611967565b611181565b6040516103aa9190611c84565b60405180910390f35b3480156103be575f5ffd5b506103d960048036038101906103d49190611ca4565b6111e8565b005b3480156103e6575f5ffd5b506103ef61126c565b6040516103fc91906115f1565b60405180910390f35b5f61040e611278565b67016345785d8a0000341461044f576040517fd3038cba00000000000000000000000000000000000000000000000000000000815260040160405180910390fd5b5f60025f9054906101000a900473ffffffffffffffffffffffffffffffffffffffff1673ffffffffffffffffffffffffffffffffffffffff1663990711903386866040518463ffffffff1660e01b81526004016104ae93929190611d21565b6020604051808303815f875af11580156104ca573d5f5f3e3d5ffd5b505050506040513d601f19601f820116820180604052508101906104ee9190611d78565b90503460045f8381526020019081526020015f2081905550803373ffffffffffffffffffffffffffffffffffffffff167f0cf5ed457d59a5a7e951368796a2dbc74f04749689092b2c83c05f9aef728399868660405161054f929190611da3565b60405180910390a3809150506105636112bc565b92915050565b610571611278565b3373ffffffffffffffffffffffffffffffffffffffff1660025f9054906101000a900473ffffffffffffffffffffffffffffffffffffffff1673ffffffffffffffffffffffffffffffffffffffff16636352211e866040518263ffffffff1660e01b81526004016105e291906115f1565b602060405180830381865afa1580156105fd573d5f5f3e3d5ffd5b505050506040513d601f19601f820116820180604052508101906106219190611dec565b73ffffffffffffffffffffffffffffffffffffffff161461066e576040517f5d1a8a5a00000000000000000000000000000000000000000000000000000000815260040160405180910390fd5b5f60035f9054906101000a900473ffffffffffffffffffffffffffffffffffffffff1673ffffffffffffffffffffffffffffffffffffffff1663e86f636787878787876040518663ffffffff1660e01b81526004016106d1959493929190611e17565b6020604051808303815f875af11580156106ed573d5f5f3e3d5ffd5b505050506040513d601f19601f820116820180604052508101906107119190611d78565b905060065f8681526020019081526020015f2081908060018154018082558091505060019003905f5260205f20015f9091909190915055848673ffffffffffffffffffffffffffffffffffffffff167f8c5b2e5de2817244cc8d62f53085b9da224d357aad41671b3c5aea00c698b0a1868685876040516107959493929190611e76565b60405180910390a3506107a66112bc565b5050505050565b6005544210610ae4575f60025f9054906101000a900473ffffffffffffffffffffffffffffffffffffffff1673ffffffffffffffffffffffffffffffffffffffff16633da5348f6040518163ffffffff1660e01b8152600401602060405180830381865afa158015610821573d5f5f3e3d5ffd5b505050506040513d601f19601f820116820180604052508101906108459190611d78565b90505f5f90505f5f90505b82811015610a9e575f60025f9054906101000a900473ffffffffffffffffffffffffffffffffffffffff1673ffffffffffffffffffffffffffffffffffffffff16636352211e836040518263ffffffff1660e01b81526004016108b391906115f1565b602060405180830381865afa9250505080156108ed57506040513d601f19601f820116820180604052508101906108ea9190611dec565b60015b6108f75750610a91565b809150505f60045f8481526020019081526020015f205490505f810361091e575050610a91565b60025f9054906101000a900473ffffffffffffffffffffffffffffffffffffffff1673ffffffffffffffffffffffffffffffffffffffff166342966c68846040518263ffffffff1660e01b815260040161097891906115f1565b5f604051808303815f87803b15801561098f575f5ffd5b505af11580156109a1573d5f5f3e3d5ffd5b5050505083806109b090611ef4565b9450505f8273ffffffffffffffffffffffffffffffffffffffff16826040516109d890611f68565b5f6040518083038185875af1925050503d805f8114610a12576040519150601f19603f3d011682016040523d82523d5f602084013e610a17565b606091505b5050905080610a2857505050610a91565b5f60045f8681526020019081526020015f20819055508273ffffffffffffffffffffffffffffffffffffffff16847fb65f53b4804b4409ea4d820cd3f85711d4558bffdaca431d00266dd755d3e47784604051610a8591906115f1565b60405180910390a35050505b8080600101915050610850565b505f811115610ae1577fcc93c91f2ae4e8e36c3861518366947212fa591412991166e89420a73eb6f9984282604051610ad8929190611f7c565b60405180910390a15b50505b5050565b6006602052815f5260405f208181548110610b01575f80fd5b905f5260205f20015f91509150505481565b610b1b611278565b3373ffffffffffffffffffffffffffffffffffffffff1660025f9054906101000a900473ffffffffffffffffffffffffffffffffffffffff1673ffffffffffffffffffffffffffffffffffffffff16636352211e866040518263ffffffff1660e01b8152600401610b8c91906115f1565b602060405180830381865afa158015610ba7573d5f5f3e3d5ffd5b505050506040513d601f19601f82011682018060405250810190610bcb9190611dec565b73ffffffffffffffffffffffffffffffffffffffff1614610c18576040517f5d1a8a5a00000000000000000000000000000000000000000000000000000000815260040160405180910390fd5b5f60035f9054906101000a900473ffffffffffffffffffffffffffffffffffffffff1673ffffffffffffffffffffffffffffffffffffffff1663e86f636733878787876040518663ffffffff1660e01b8152600401610c7b959493929190611e17565b6020604051808303815f875af1158015610c97573d5f5f3e3d5ffd5b505050506040513d601f19601f82011682018060405250810190610cbb9190611d78565b905060065f8681526020019081526020015f2081908060018154018082558091505060019003905f5260205f20015f9091909190915055843373ffffffffffffffffffffffffffffffffffffffff167f8c5b2e5de2817244cc8d62f53085b9da224d357aad41671b3c5aea00c698b0a186868587604051610d3f9493929190611e76565b60405180910390a350610d506112bc565b50505050565b60055481565b5f606060055442101591508115610ec6575f60025f9054906101000a900473ffffffffffffffffffffffffffffffffffffffff1673ffffffffffffffffffffffffffffffffffffffff16633da5348f6040518163ffffffff1660e01b8152600401602060405180830381865afa158015610dd8573d5f5f3e3d5ffd5b505050506040513d601f19601f82011682018060405250810190610dfc9190611d78565b90505f5f90505f5f90505b82811015610ebf5760025f9054906101000a900473ffffffffffffffffffffffffffffffffffffffff1673ffffffffffffffffffffffffffffffffffffffff16636352211e826040518263ffffffff1660e01b8152600401610e6991906115f1565b602060405180830381865afa925050508015610ea357506040513d601f19601f82011682018060405250810190610ea09190611dec565b60015b15610eb2576001925050610ebf565b8080600101915050610e07565b5080935050505b816040518060400160405280600381526020017f3078300000000000000000000000000000000000000000000000000000000000815250915091509250929050565b610f106112c5565b610f195f61134c565b565b610f236112c5565b8060058190555050565b5f60015f9054906101000a900473ffffffffffffffffffffffffffffffffffffffff16905090565b60035f9054906101000a900473ffffffffffffffffffffffffffffffffffffffff1681565b6004602052805f5260405f205f915090505481565b60025f9054906101000a900473ffffffffffffffffffffffffffffffffffffffff1681565b610fbc611278565b610fc46112c5565b5f60065f8581526020019081526020015f2080548060200260200160405190810160405280929190818152602001828054801561101e57602002820191905f5260205f20905b81548152602001906001019080831161100a575b505050505090508051825114611060576040517f9d89020a00000000000000000000000000000000000000000000000000000000815260040160405180910390fd5b5f5f90505b81518110156111385760035f9054906101000a900473ffffffffffffffffffffffffffffffffffffffff1673ffffffffffffffffffffffffffffffffffffffff166318e97fd18383815181106110be576110bd611fa3565b5b60200260200101518584815181106110d9576110d8611fa3565b5b60200260200101516040518363ffffffff1660e01b81526004016110fe929190611fd0565b5f604051808303815f87803b158015611115575f5ffd5b505af1158015611127573d5f5f3e3d5ffd5b505050508080600101915050611065565b50837ff9ff0b1ed37689d6e60003bae22a42d6f031092159637eba4beb23a0c5ccfd32848360405161116b929190611ffe565b60405180910390a25061117c6112bc565b505050565b606060065f8381526020019081526020015f208054806020026020016040519081016040528092919081815260200182805480156111dc57602002820191905f5260205f20905b8154815260200190600101908083116111c8575b50505050509050919050565b6111f06112c5565b5f73ffffffffffffffffffffffffffffffffffffffff168173ffffffffffffffffffffffffffffffffffffffff1603611260575f6040517f1e4fbdf700000000000000000000000000000000000000000000000000000000815260040161125791906119a1565b60405180910390fd5b6112698161134c565b50565b67016345785d8a000081565b60025f54036112b3576040517f3ee5aeb500000000000000000000000000000000000000000000000000000000815260040160405180910390fd5b60025f81905550565b60015f81905550565b6112cd61140f565b73ffffffffffffffffffffffffffffffffffffffff166112eb610f2d565b73ffffffffffffffffffffffffffffffffffffffff161461134a5761130e61140f565b6040517f118cdaa700000000000000000000000000000000000000000000000000000000815260040161134191906119a1565b60405180910390fd5b565b5f60015f9054906101000a900473ffffffffffffffffffffffffffffffffffffffff1690508160015f6101000a81548173ffffffffffffffffffffffffffffffffffffffff021916908373ffffffffffffffffffffffffffffffffffffffff1602179055508173ffffffffffffffffffffffffffffffffffffffff168173ffffffffffffffffffffffffffffffffffffffff167f8be0079c531659141344cd1fd0a4f28419497f9722a3daafe3b4186f6b6457e060405160405180910390a35050565b5f33905090565b5f604051905090565b5f5ffd5b5f5ffd5b5f5ffd5b5f5ffd5b5f601f19601f8301169050919050565b7f4e487b71000000000000000000000000000000000000000000000000000000005f52604160045260245ffd5b6114758261142f565b810181811067ffffffffffffffff821117156114945761149361143f565b5b80604052505050565b5f6114a6611416565b90506114b2828261146c565b919050565b5f67ffffffffffffffff8211156114d1576114d061143f565b5b6114da8261142f565b9050602081019050919050565b828183375f83830152505050565b5f611507611502846114b7565b61149d565b9050828152602081018484840111156115235761152261142b565b5b61152e8482856114e7565b509392505050565b5f82601f83011261154a57611549611427565b5b813561155a8482602086016114f5565b91505092915050565b5f5f604083850312156115795761157861141f565b5b5f83013567ffffffffffffffff81111561159657611595611423565b5b6115a285828601611536565b925050602083013567ffffffffffffffff8111156115c3576115c2611423565b5b6115cf85828601611536565b9150509250929050565b5f819050919050565b6115eb816115d9565b82525050565b5f6020820190506116045f8301846115e2565b92915050565b5f73ffffffffffffffffffffffffffffffffffffffff82169050919050565b5f6116338261160a565b9050919050565b61164381611629565b811461164d575f5ffd5b50565b5f8135905061165e8161163a565b92915050565b61166d816115d9565b8114611677575f5ffd5b50565b5f8135905061168881611664565b92915050565b5f5f5f5f5f60a086880312156116a7576116a661141f565b5b5f6116b488828901611650565b95505060206116c58882890161167a565b945050604086013567ffffffffffffffff8111156116e6576116e5611423565b5b6116f288828901611536565b93505060606117038882890161167a565b925050608086013567ffffffffffffffff81111561172457611723611423565b5b61173088828901611536565b9150509295509295909350565b5f5ffd5b5f5ffd5b5f5f83601f84011261175a57611759611427565b5b8235905067ffffffffffffffff8111156117775761177661173d565b5b60208301915083600182028301111561179357611792611741565b5b9250929050565b5f5f602083850312156117b0576117af61141f565b5b5f83013567ffffffffffffffff8111156117cd576117cc611423565b5b6117d985828601611745565b92509250509250929050565b5f5f604083850312156117fb576117fa61141f565b5b5f6118088582860161167a565b92505060206118198582860161167a565b9150509250929050565b5f5f5f5f6080858703121561183b5761183a61141f565b5b5f6118488782880161167a565b945050602085013567ffffffffffffffff81111561186957611868611423565b5b61187587828801611536565b93505060406118868782880161167a565b925050606085013567ffffffffffffffff8111156118a7576118a6611423565b5b6118b387828801611536565b91505092959194509250565b5f8115159050919050565b6118d3816118bf565b82525050565b5f81519050919050565b5f82825260208201905092915050565b8281835e5f83830152505050565b5f61190b826118d9565b61191581856118e3565b93506119258185602086016118f3565b61192e8161142f565b840191505092915050565b5f60408201905061194c5f8301856118ca565b818103602083015261195e8184611901565b90509392505050565b5f6020828403121561197c5761197b61141f565b5b5f6119898482850161167a565b91505092915050565b61199b81611629565b82525050565b5f6020820190506119b45f830184611992565b92915050565b5f819050919050565b5f6119dd6119d86119d38461160a565b6119ba565b61160a565b9050919050565b5f6119ee826119c3565b9050919050565b5f6119ff826119e4565b9050919050565b611a0f816119f5565b82525050565b5f602082019050611a285f830184611a06565b92915050565b5f611a38826119e4565b9050919050565b611a4881611a2e565b82525050565b5f602082019050611a615f830184611a3f565b92915050565b5f67ffffffffffffffff821115611a8157611a8061143f565b5b602082029050602081019050919050565b5f611aa4611a9f84611a67565b61149d565b90508083825260208201905060208402830185811115611ac757611ac6611741565b5b835b81811015611b0e57803567ffffffffffffffff811115611aec57611aeb611427565b5b808601611af98982611536565b85526020850194505050602081019050611ac9565b5050509392505050565b5f82601f830112611b2c57611b2b611427565b5b8135611b3c848260208601611a92565b91505092915050565b5f5f5f60608486031215611b5c57611b5b61141f565b5b5f611b698682870161167a565b935050602084013567ffffffffffffffff811115611b8a57611b89611423565b5b611b9686828701611536565b925050604084013567ffffffffffffffff811115611bb757611bb6611423565b5b611bc386828701611b18565b9150509250925092565b5f81519050919050565b5f82825260208201905092915050565b5f819050602082019050919050565b611bff816115d9565b82525050565b5f611c108383611bf6565b60208301905092915050565b5f602082019050919050565b5f611c3282611bcd565b611c3c8185611bd7565b9350611c4783611be7565b805f5b83811015611c77578151611c5e8882611c05565b9750611c6983611c1c565b925050600181019050611c4a565b5085935050505092915050565b5f6020820190508181035f830152611c9c8184611c28565b905092915050565b5f60208284031215611cb957611cb861141f565b5b5f611cc684828501611650565b91505092915050565b5f81519050919050565b5f82825260208201905092915050565b5f611cf382611ccf565b611cfd8185611cd9565b9350611d0d8185602086016118f3565b611d168161142f565b840191505092915050565b5f606082019050611d345f830186611992565b8181036020830152611d468185611ce9565b90508181036040830152611d5a8184611ce9565b9050949350505050565b5f81519050611d7281611664565b92915050565b5f60208284031215611d8d57611d8c61141f565b5b5f611d9a84828501611d64565b91505092915050565b5f6040820190508181035f830152611dbb8185611ce9565b90508181036020830152611dcf8184611ce9565b90509392505050565b5f81519050611de68161163a565b92915050565b5f60208284031215611e0157611e0061141f565b5b5f611e0e84828501611dd8565b91505092915050565b5f60a082019050611e2a5f830188611992565b611e3760208301876115e2565b8181036040830152611e498186611ce9565b9050611e5860608301856115e2565b8181036080830152611e6a8184611ce9565b90509695505050505050565b5f6080820190508181035f830152611e8e8187611ce9565b9050611e9d60208301866115e2565b611eaa60408301856115e2565b8181036060830152611ebc8184611ce9565b905095945050505050565b7f4e487b71000000000000000000000000000000000000000000000000000000005f52601160045260245ffd5b5f611efe826115d9565b91507fffffffffffffffffffffffffffffffffffffffffffffffffffffffffffffffff8203611f3057611f2f611ec7565b5b600182019050919050565b5f81905092915050565b50565b5f611f535f83611f3b565b9150611f5e82611f45565b5f82019050919050565b5f611f7282611f48565b9150819050919050565b5f604082019050611f8f5f8301856115e2565b611f9c60208301846115e2565b9392505050565b7f4e487b71000000000000000000000000000000000000000000000000000000005f52603260045260245ffd5b5f604082019050611fe35f8301856115e2565b8181036020830152611ff58184611ce9565b90509392505050565b5f6040820190508181035f8301526120168185611ce9565b9050818103602083015261202a8184611c28565b9050939250505056fea264697066735822122035f929915fe30b55d8dc4ac6981acfb1d2e28275b55de9531f08306945ef71a864736f6c634300081c0033608060405234801561000f575f5ffd5b50604051612dd0380380612dd0833981810160405281019061003191906102ae565b806040518060400160405280600881526020017f5465616d204e46540000000000000000000000000000000000000000000000008152506040518060400160405280600481526020017f5445414d00000000000000000000000000000000000000000000000000000000815250815f90816100ac9190610516565b5080600190816100bc9190610516565b50505060016007819055505f73ffffffffffffffffffffffffffffffffffffffff168173ffffffffffffffffffffffffffffffffffffffff1603610137575f6040517f1e4fbdf700000000000000000000000000000000000000000000000000000000815260040161012e91906105f4565b60405180910390fd5b6101468161018d60201b60201c565b508060095f6101000a81548173ffffffffffffffffffffffffffffffffffffffff021916908373ffffffffffffffffffffffffffffffffffffffff1602179055505061060d565b5f60085f9054906101000a900473ffffffffffffffffffffffffffffffffffffffff1690508160085f6101000a81548173ffffffffffffffffffffffffffffffffffffffff021916908373ffffffffffffffffffffffffffffffffffffffff1602179055508173ffffffffffffffffffffffffffffffffffffffff168173ffffffffffffffffffffffffffffffffffffffff167f8be0079c531659141344cd1fd0a4f28419497f9722a3daafe3b4186f6b6457e060405160405180910390a35050565b5f5ffd5b5f73ffffffffffffffffffffffffffffffffffffffff82169050919050565b5f61027d82610254565b9050919050565b61028d81610273565b8114610297575f5ffd5b50565b5f815190506102a881610284565b92915050565b5f602082840312156102c3576102c2610250565b5b5f6102d08482850161029a565b91505092915050565b5f81519050919050565b7f4e487b71000000000000000000000000000000000000000000000000000000005f52604160045260245ffd5b7f4e487b71000000000000000000000000000000000000000000000000000000005f52602260045260245ffd5b5f600282049050600182168061035457607f821691505b60208210810361036757610366610310565b5b50919050565b5f819050815f5260205f209050919050565b5f6020601f8301049050919050565b5f82821b905092915050565b5f600883026103c97fffffffffffffffffffffffffffffffffffffffffffffffffffffffffffffffff8261038e565b6103d3868361038e565b95508019841693508086168417925050509392505050565b5f819050919050565b5f819050919050565b5f61041761041261040d846103eb565b6103f4565b6103eb565b9050919050565b5f819050919050565b610430836103fd565b61044461043c8261041e565b84845461039a565b825550505050565b5f5f905090565b61045b61044c565b610466818484610427565b505050565b5b818110156104895761047e5f82610453565b60018101905061046c565b5050565b601f8211156104ce5761049f8161036d565b6104a88461037f565b810160208510156104b7578190505b6104cb6104c38561037f565b83018261046b565b50505b505050565b5f82821c905092915050565b5f6104ee5f19846008026104d3565b1980831691505092915050565b5f61050683836104df565b9150826002028217905092915050565b61051f826102d9565b67ffffffffffffffff811115610538576105376102e3565b5b610542825461033d565b61054d82828561048d565b5f60209050601f83116001811461057e575f841561056c578287015190505b61057685826104fb565b8655506105dd565b601f19841661058c8661036d565b5f5b828110156105b35784890151825560018201915060208501945060208101905061058e565b868310156105d057848901516105cc601f8916826104df565b8355505b6001600288020188555050505b505050505050565b6105ee81610273565b82525050565b5f6020820190506106075f8301846105e5565b92915050565b6127b68061061a5f395ff3fe608060405234801561000f575f5ffd5b5060043610610135575f3560e01c8063715018a6116100b6578063b88d4fde1161007a578063b88d4fde14610337578063c45a015514610353578063c87b56dd14610371578063e985e9c5146103a1578063ea0e35b1146103d1578063f2fde38b146103ef57610135565b8063715018a6146102a55780638da5cb5b146102af57806395d89b41146102cd57806399071190146102eb578063a22cb4651461031b57610135565b80633da5348f116100fd5780633da5348f146101ef57806342842e0e1461020d57806342966c68146102295780636352211e1461024557806370a082311461027557610135565b806301ffc9a71461013957806306fdde0314610169578063081812fc14610187578063095ea7b3146101b757806323b872dd146101d3575b5f5ffd5b610153600480360381019061014e9190611c8d565b61040b565b6040516101609190611cd2565b60405180910390f35b61017161041c565b60405161017e9190611d5b565b60405180910390f35b6101a1600480360381019061019c9190611dae565b6104ab565b6040516101ae9190611e18565b60405180910390f35b6101d160048036038101906101cc9190611e5b565b6104c6565b005b6101ed60048036038101906101e89190611e99565b6104dc565b005b6101f761050e565b6040516102049190611ef8565b60405180910390f35b61022760048036038101906102229190611e99565b610514565b005b610243600480360381019061023e9190611dae565b610533565b005b61025f600480360381019061025a9190611dae565b6105d5565b60405161026c9190611e18565b60405180910390f35b61028f600480360381019061028a9190611f11565b6105e6565b60405161029c9190611ef8565b60405180910390f35b6102ad61069c565b005b6102b76106af565b6040516102c49190611e18565b60405180910390f35b6102d56106d7565b6040516102e29190611d5b565b60405180910390f35b61030560048036038101906103009190612068565b610767565b6040516103129190611ef8565b60405180910390f35b6103356004803603810190610330919061211a565b610836565b005b610351600480360381019061034c91906121f6565b61084c565b005b61035b610871565b6040516103689190611e18565b60405180910390f35b61038b60048036038101906103869190611dae565b610896565b6040516103989190611d5b565b60405180910390f35b6103bb60048036038101906103b69190612276565b6108a8565b6040516103c89190611cd2565b60405180910390f35b6103d9610936565b6040516103e69190611ef8565b60405180910390f35b61040960048036038101906104049190611f11565b61093b565b005b5f610415826109bf565b9050919050565b60605f805461042a906122e1565b80601f0160208091040260200160405190810160405280929190818152602001828054610456906122e1565b80156104a15780601f10610478576101008083540402835291602001916104a1565b820191905f5260205f20905b81548152906001019060200180831161048457829003601f168201915b5050505050905090565b5f6104b582610a1f565b506104bf82610aa5565b9050919050565b6104d882826104d3610ade565b610ae5565b5050565b6040517f6e10574900000000000000000000000000000000000000000000000000000000815260040160405180910390fd5b600a5481565b61052e83838360405180602001604052805f81525061084c565b505050565b60095f9054906101000a900473ffffffffffffffffffffffffffffffffffffffff1673ffffffffffffffffffffffffffffffffffffffff163373ffffffffffffffffffffffffffffffffffffffff16146105b9576040517f1b1319e500000000000000000000000000000000000000000000000000000000815260040160405180910390fd5b6105c1610af7565b6105ca81610b3d565b6105d2610bbf565b50565b5f6105df82610a1f565b9050919050565b5f5f73ffffffffffffffffffffffffffffffffffffffff168273ffffffffffffffffffffffffffffffffffffffff1603610657575f6040517f89c62b6400000000000000000000000000000000000000000000000000000000815260040161064e9190611e18565b60405180910390fd5b60035f8373ffffffffffffffffffffffffffffffffffffffff1673ffffffffffffffffffffffffffffffffffffffff1681526020019081526020015f20549050919050565b6106a4610bc9565b6106ad5f610c50565b565b5f60085f9054906101000a900473ffffffffffffffffffffffffffffffffffffffff16905090565b6060600180546106e6906122e1565b80601f0160208091040260200160405190810160405280929190818152602001828054610712906122e1565b801561075d5780601f106107345761010080835404028352916020019161075d565b820191905f5260205f20905b81548152906001019060200180831161074057829003601f168201915b5050505050905090565b5f60095f9054906101000a900473ffffffffffffffffffffffffffffffffffffffff1673ffffffffffffffffffffffffffffffffffffffff163373ffffffffffffffffffffffffffffffffffffffff16146107ee576040517f1b1319e500000000000000000000000000000000000000000000000000000000815260040160405180910390fd5b6107f6610af7565b5f600a5f8154809291906108099061233e565b9190505590506108198582610d13565b6108238184610d30565b8091505061082f610bbf565b9392505050565b610848610841610ade565b8383610d8a565b5050565b6108578484846104dc565b61086b610862610ade565b85858585610ef3565b50505050565b60095f9054906101000a900473ffffffffffffffffffffffffffffffffffffffff1681565b60606108a18261109f565b9050919050565b5f60055f8473ffffffffffffffffffffffffffffffffffffffff1673ffffffffffffffffffffffffffffffffffffffff1681526020019081526020015f205f8373ffffffffffffffffffffffffffffffffffffffff1673ffffffffffffffffffffffffffffffffffffffff1681526020019081526020015f205f9054906101000a900460ff16905092915050565b600581565b610943610bc9565b5f73ffffffffffffffffffffffffffffffffffffffff168173ffffffffffffffffffffffffffffffffffffffff16036109b3575f6040517f1e4fbdf70000000000000000000000000000000000000000000000000000000081526004016109aa9190611e18565b60405180910390fd5b6109bc81610c50565b50565b5f634906490660e01b7bffffffffffffffffffffffffffffffffffffffffffffffffffffffff1916827bffffffffffffffffffffffffffffffffffffffffffffffffffffffff19161480610a185750610a17826111aa565b5b9050919050565b5f5f610a2a8361128b565b90505f73ffffffffffffffffffffffffffffffffffffffff168173ffffffffffffffffffffffffffffffffffffffff1603610a9c57826040517f7e273289000000000000000000000000000000000000000000000000000000008152600401610a939190611ef8565b60405180910390fd5b80915050919050565b5f60045f8381526020019081526020015f205f9054906101000a900473ffffffffffffffffffffffffffffffffffffffff169050919050565b5f33905090565b610af283838360016112c4565b505050565b600260075403610b33576040517f3ee5aeb500000000000000000000000000000000000000000000000000000000815260040160405180910390fd5b6002600781905550565b5f610b495f835f611483565b90505f73ffffffffffffffffffffffffffffffffffffffff168173ffffffffffffffffffffffffffffffffffffffff1603610bbb57816040517f7e273289000000000000000000000000000000000000000000000000000000008152600401610bb29190611ef8565b60405180910390fd5b5050565b6001600781905550565b610bd1610ade565b73ffffffffffffffffffffffffffffffffffffffff16610bef6106af565b73ffffffffffffffffffffffffffffffffffffffff1614610c4e57610c12610ade565b6040517f118cdaa7000000000000000000000000000000000000000000000000000000008152600401610c459190611e18565b60405180910390fd5b565b5f60085f9054906101000a900473ffffffffffffffffffffffffffffffffffffffff1690508160085f6101000a81548173ffffffffffffffffffffffffffffffffffffffff021916908373ffffffffffffffffffffffffffffffffffffffff1602179055508173ffffffffffffffffffffffffffffffffffffffff168173ffffffffffffffffffffffffffffffffffffffff167f8be0079c531659141344cd1fd0a4f28419497f9722a3daafe3b4186f6b6457e060405160405180910390a35050565b610d2c828260405180602001604052805f81525061168e565b5050565b8060065f8481526020019081526020015f209081610d4e9190612525565b507ff8e1a15aba9398e019f0b49df1a4fde98ee17ae345cb5f6b5e2c27f5033e8ce782604051610d7e9190611ef8565b60405180910390a15050565b5f73ffffffffffffffffffffffffffffffffffffffff168273ffffffffffffffffffffffffffffffffffffffff1603610dfa57816040517f5b08ba18000000000000000000000000000000000000000000000000000000008152600401610df19190611e18565b60405180910390fd5b8060055f8573ffffffffffffffffffffffffffffffffffffffff1673ffffffffffffffffffffffffffffffffffffffff1681526020019081526020015f205f8473ffffffffffffffffffffffffffffffffffffffff1673ffffffffffffffffffffffffffffffffffffffff1681526020019081526020015f205f6101000a81548160ff0219169083151502179055508173ffffffffffffffffffffffffffffffffffffffff168373ffffffffffffffffffffffffffffffffffffffff167f17307eab39ab6107e8899845ad3d59bd9653f200f220920489ca2b5937696c3183604051610ee69190611cd2565b60405180910390a3505050565b5f8373ffffffffffffffffffffffffffffffffffffffff163b1115611098578273ffffffffffffffffffffffffffffffffffffffff1663150b7a02868685856040518563ffffffff1660e01b8152600401610f519493929190612646565b6020604051808303815f875af1925050508015610f8c57506040513d601f19601f82011682018060405250810190610f8991906126a4565b60015b61100d573d805f8114610fba576040519150601f19603f3d011682016040523d82523d5f602084013e610fbf565b606091505b505f81510361100557836040517f64a0ae92000000000000000000000000000000000000000000000000000000008152600401610ffc9190611e18565b60405180910390fd5b805181602001fd5b63150b7a0260e01b7bffffffffffffffffffffffffffffffffffffffffffffffffffffffff1916817bffffffffffffffffffffffffffffffffffffffffffffffffffffffff19161461109657836040517f64a0ae9200000000000000000000000000000000000000000000000000000000815260040161108d9190611e18565b60405180910390fd5b505b5050505050565b60606110aa82610a1f565b505f60065f8481526020019081526020015f2080546110c8906122e1565b80601f01602080910402602001604051908101604052809291908181526020018280546110f4906122e1565b801561113f5780601f106111165761010080835404028352916020019161113f565b820191905f5260205f20905b81548152906001019060200180831161112257829003601f168201915b505050505090505f61114f6116b1565b90505f8151036111635781925050506111a5565b5f8251111561119757808260405160200161117f929190612709565b604051602081830303815290604052925050506111a5565b6111a0846116c7565b925050505b919050565b5f7f80ac58cd000000000000000000000000000000000000000000000000000000007bffffffffffffffffffffffffffffffffffffffffffffffffffffffff1916827bffffffffffffffffffffffffffffffffffffffffffffffffffffffff1916148061127457507f5b5e139f000000000000000000000000000000000000000000000000000000007bffffffffffffffffffffffffffffffffffffffffffffffffffffffff1916827bffffffffffffffffffffffffffffffffffffffffffffffffffffffff1916145b8061128457506112838261172d565b5b9050919050565b5f60025f8381526020019081526020015f205f9054906101000a900473ffffffffffffffffffffffffffffffffffffffff169050919050565b80806112fc57505f73ffffffffffffffffffffffffffffffffffffffff168273ffffffffffffffffffffffffffffffffffffffff1614155b1561142e575f61130b84610a1f565b90505f73ffffffffffffffffffffffffffffffffffffffff168373ffffffffffffffffffffffffffffffffffffffff161415801561137557508273ffffffffffffffffffffffffffffffffffffffff168173ffffffffffffffffffffffffffffffffffffffff1614155b8015611388575061138681846108a8565b155b156113ca57826040517fa9fbf51f0000000000000000000000000000000000000000000000000000000081526004016113c19190611e18565b60405180910390fd5b811561142c57838573ffffffffffffffffffffffffffffffffffffffff168273ffffffffffffffffffffffffffffffffffffffff167f8c5be1e5ebec7d5bd14f71427d1e84f3dd0314c0f7b2291e5b200ac8c7c3b92560405160405180910390a45b505b8360045f8581526020019081526020015f205f6101000a81548173ffffffffffffffffffffffffffffffffffffffff021916908373ffffffffffffffffffffffffffffffffffffffff16021790555050505050565b5f5f61148e8461128b565b90505f73ffffffffffffffffffffffffffffffffffffffff168373ffffffffffffffffffffffffffffffffffffffff16146114cf576114ce818486611796565b5b5f73ffffffffffffffffffffffffffffffffffffffff168173ffffffffffffffffffffffffffffffffffffffff161461155a5761150e5f855f5f6112c4565b600160035f8373ffffffffffffffffffffffffffffffffffffffff1673ffffffffffffffffffffffffffffffffffffffff1681526020019081526020015f205f82825403925050819055505b5f73ffffffffffffffffffffffffffffffffffffffff168573ffffffffffffffffffffffffffffffffffffffff16146115d957600160035f8773ffffffffffffffffffffffffffffffffffffffff1673ffffffffffffffffffffffffffffffffffffffff1681526020019081526020015f205f82825401925050819055505b8460025f8681526020019081526020015f205f6101000a81548173ffffffffffffffffffffffffffffffffffffffff021916908373ffffffffffffffffffffffffffffffffffffffff160217905550838573ffffffffffffffffffffffffffffffffffffffff168273ffffffffffffffffffffffffffffffffffffffff167fddf252ad1be2c89b69c2b068fc378daa952ba7f163c4a11628f55a4df523b3ef60405160405180910390a4809150509392505050565b6116988383611859565b6116ac6116a3610ade565b5f858585610ef3565b505050565b606060405180602001604052805f815250905090565b60606116d282610a1f565b505f6116dc6116b1565b90505f8151116116fa5760405180602001604052805f815250611725565b806117048461194c565b604051602001611715929190612709565b6040516020818303038152906040525b915050919050565b5f7f01ffc9a7000000000000000000000000000000000000000000000000000000007bffffffffffffffffffffffffffffffffffffffffffffffffffffffff1916827bffffffffffffffffffffffffffffffffffffffffffffffffffffffff1916149050919050565b6117a1838383611a16565b611854575f73ffffffffffffffffffffffffffffffffffffffff168373ffffffffffffffffffffffffffffffffffffffff160361181557806040517f7e27328900000000000000000000000000000000000000000000000000000000815260040161180c9190611ef8565b60405180910390fd5b81816040517f177e802f00000000000000000000000000000000000000000000000000000000815260040161184b92919061272c565b60405180910390fd5b505050565b5f73ffffffffffffffffffffffffffffffffffffffff168273ffffffffffffffffffffffffffffffffffffffff16036118c9575f6040517f64a0ae920000000000000000000000000000000000000000000000000000000081526004016118c09190611e18565b60405180910390fd5b5f6118d583835f611483565b90505f73ffffffffffffffffffffffffffffffffffffffff168173ffffffffffffffffffffffffffffffffffffffff1614611947575f6040517f73c6ac6e00000000000000000000000000000000000000000000000000000000815260040161193e9190611e18565b60405180910390fd5b505050565b60605f600161195a84611ad6565b0190505f8167ffffffffffffffff81111561197857611977611f44565b5b6040519080825280601f01601f1916602001820160405280156119aa5781602001600182028036833780820191505090505b5090505f82602001820190505b600115611a0b578080600190039150507f3031323334353637383961626364656600000000000000000000000000000000600a86061a8153600a8581611a00576119ff612753565b5b0494505f85036119b7575b819350505050919050565b5f5f73ffffffffffffffffffffffffffffffffffffffff168373ffffffffffffffffffffffffffffffffffffffff1614158015611acd57508273ffffffffffffffffffffffffffffffffffffffff168473ffffffffffffffffffffffffffffffffffffffff161480611a8e5750611a8d84846108a8565b5b80611acc57508273ffffffffffffffffffffffffffffffffffffffff16611ab483610aa5565b73ffffffffffffffffffffffffffffffffffffffff16145b5b90509392505050565b5f5f5f90507a184f03e93ff9f4daa797ed6e38ed64bf6a1f0100000000000000008310611b32577a184f03e93ff9f4daa797ed6e38ed64bf6a1f0100000000000000008381611b2857611b27612753565b5b0492506040810190505b6d04ee2d6d415b85acef81000000008310611b6f576d04ee2d6d415b85acef81000000008381611b6557611b64612753565b5b0492506020810190505b662386f26fc100008310611b9e57662386f26fc100008381611b9457611b93612753565b5b0492506010810190505b6305f5e1008310611bc7576305f5e1008381611bbd57611bbc612753565b5b0492506008810190505b6127108310611bec576127108381611be257611be1612753565b5b0492506004810190505b60648310611c0f5760648381611c0557611c04612753565b5b0492506002810190505b600a8310611c1e576001810190505b80915050919050565b5f604051905090565b5f5ffd5b5f5ffd5b5f7fffffffff0000000000000000000000000000000000000000000000000000000082169050919050565b611c6c81611c38565b8114611c76575f5ffd5b50565b5f81359050611c8781611c63565b92915050565b5f60208284031215611ca257611ca1611c30565b5b5f611caf84828501611c79565b91505092915050565b5f8115159050919050565b611ccc81611cb8565b82525050565b5f602082019050611ce55f830184611cc3565b92915050565b5f81519050919050565b5f82825260208201905092915050565b8281835e5f83830152505050565b5f601f19601f8301169050919050565b5f611d2d82611ceb565b611d378185611cf5565b9350611d47818560208601611d05565b611d5081611d13565b840191505092915050565b5f6020820190508181035f830152611d738184611d23565b905092915050565b5f819050919050565b611d8d81611d7b565b8114611d97575f5ffd5b50565b5f81359050611da881611d84565b92915050565b5f60208284031215611dc357611dc2611c30565b5b5f611dd084828501611d9a565b91505092915050565b5f73ffffffffffffffffffffffffffffffffffffffff82169050919050565b5f611e0282611dd9565b9050919050565b611e1281611df8565b82525050565b5f602082019050611e2b5f830184611e09565b92915050565b611e3a81611df8565b8114611e44575f5ffd5b50565b5f81359050611e5581611e31565b92915050565b5f5f60408385031215611e7157611e70611c30565b5b5f611e7e85828601611e47565b9250506020611e8f85828601611d9a565b9150509250929050565b5f5f5f60608486031215611eb057611eaf611c30565b5b5f611ebd86828701611e47565b9350506020611ece86828701611e47565b9250506040611edf86828701611d9a565b9150509250925092565b611ef281611d7b565b82525050565b5f602082019050611f0b5f830184611ee9565b92915050565b5f60208284031215611f2657611f25611c30565b5b5f611f3384828501611e47565b91505092915050565b5f5ffd5b5f5ffd5b7f4e487b71000000000000000000000000000000000000000000000000000000005f52604160045260245ffd5b611f7a82611d13565b810181811067ffffffffffffffff82111715611f9957611f98611f44565b5b80604052505050565b5f611fab611c27565b9050611fb78282611f71565b919050565b5f67ffffffffffffffff821115611fd657611fd5611f44565b5b611fdf82611d13565b9050602081019050919050565b828183375f83830152505050565b5f61200c61200784611fbc565b611fa2565b90508281526020810184848401111561202857612027611f40565b5b612033848285611fec565b509392505050565b5f82601f83011261204f5761204e611f3c565b5b813561205f848260208601611ffa565b91505092915050565b5f5f5f6060848603121561207f5761207e611c30565b5b5f61208c86828701611e47565b935050602084013567ffffffffffffffff8111156120ad576120ac611c34565b5b6120b98682870161203b565b925050604084013567ffffffffffffffff8111156120da576120d9611c34565b5b6120e68682870161203b565b9150509250925092565b6120f981611cb8565b8114612103575f5ffd5b50565b5f81359050612114816120f0565b92915050565b5f5f604083850312156121305761212f611c30565b5b5f61213d85828601611e47565b925050602061214e85828601612106565b9150509250929050565b5f67ffffffffffffffff82111561217257612171611f44565b5b61217b82611d13565b9050602081019050919050565b5f61219a61219584612158565b611fa2565b9050828152602081018484840111156121b6576121b5611f40565b5b6121c1848285611fec565b509392505050565b5f82601f8301126121dd576121dc611f3c565b5b81356121ed848260208601612188565b91505092915050565b5f5f5f5f6080858703121561220e5761220d611c30565b5b5f61221b87828801611e47565b945050602061222c87828801611e47565b935050604061223d87828801611d9a565b925050606085013567ffffffffffffffff81111561225e5761225d611c34565b5b61226a878288016121c9565b91505092959194509250565b5f5f6040838503121561228c5761228b611c30565b5b5f61229985828601611e47565b92505060206122aa85828601611e47565b9150509250929050565b7f4e487b71000000000000000000000000000000000000000000000000000000005f52602260045260245ffd5b5f60028204905060018216806122f857607f821691505b60208210810361230b5761230a6122b4565b5b50919050565b7f4e487b71000000000000000000000000000000000000000000000000000000005f52601160045260245ffd5b5f61234882611d7b565b91507fffffffffffffffffffffffffffffffffffffffffffffffffffffffffffffffff820361237a57612379612311565b5b600182019050919050565b5f819050815f5260205f209050919050565b5f6020601f8301049050919050565b5f82821b905092915050565b5f600883026123e17fffffffffffffffffffffffffffffffffffffffffffffffffffffffffffffffff826123a6565b6123eb86836123a6565b95508019841693508086168417925050509392505050565b5f819050919050565b5f61242661242161241c84611d7b565b612403565b611d7b565b9050919050565b5f819050919050565b61243f8361240c565b61245361244b8261242d565b8484546123b2565b825550505050565b5f5f905090565b61246a61245b565b612475818484612436565b505050565b5b818110156124985761248d5f82612462565b60018101905061247b565b5050565b601f8211156124dd576124ae81612385565b6124b784612397565b810160208510156124c6578190505b6124da6124d285612397565b83018261247a565b50505b505050565b5f82821c905092915050565b5f6124fd5f19846008026124e2565b1980831691505092915050565b5f61251583836124ee565b9150826002028217905092915050565b61252e82611ceb565b67ffffffffffffffff81111561254757612546611f44565b5b61255182546122e1565b61255c82828561249c565b5f60209050601f83116001811461258d575f841561257b578287015190505b612585858261250a565b8655506125ec565b601f19841661259b86612385565b5f5b828110156125c25784890151825560018201915060208501945060208101905061259d565b868310156125df57848901516125db601f8916826124ee565b8355505b6001600288020188555050505b505050505050565b5f81519050919050565b5f82825260208201905092915050565b5f612618826125f4565b61262281856125fe565b9350612632818560208601611d05565b61263b81611d13565b840191505092915050565b5f6080820190506126595f830187611e09565b6126666020830186611e09565b6126736040830185611ee9565b8181036060830152612685818461260e565b905095945050505050565b5f8151905061269e81611c63565b92915050565b5f602082840312156126b9576126b8611c30565b5b5f6126c684828501612690565b91505092915050565b5f81905092915050565b5f6126e382611ceb565b6126ed81856126cf565b93506126fd818560208601611d05565b80840191505092915050565b5f61271482856126d9565b915061272082846126d9565b91508190509392505050565b5f60408201905061273f5f830185611e09565b61274c6020830184611ee9565b9392505050565b7f4e487b71000000000000000000000000000000000000000000000000000000005f52601260045260245ffdfea2646970667358221220583dbea7b9d960ca9d9d12ed5d1b96429a20559b00fc70f6737d28a7613ea05764736f6c634300081c0033608060405234801561000f575f5ffd5b50604051612e63380380612e63833981810160405281019061003191906102ae565b806040518060400160405280600a81526020017f4d656d626572204e4654000000000000000000000000000000000000000000008152506040518060400160405280600681526020017f4d454d4245520000000000000000000000000000000000000000000000000000815250815f90816100ac9190610516565b5080600190816100bc9190610516565b50505060016007819055505f73ffffffffffffffffffffffffffffffffffffffff168173ffffffffffffffffffffffffffffffffffffffff1603610137575f6040517f1e4fbdf700000000000000000000000000000000000000000000000000000000815260040161012e91906105f4565b60405180910390fd5b6101468161018d60201b60201c565b508060095f6101000a81548173ffffffffffffffffffffffffffffffffffffffff021916908373ffffffffffffffffffffffffffffffffffffffff1602179055505061060d565b5f60085f9054906101000a900473ffffffffffffffffffffffffffffffffffffffff1690508160085f6101000a81548173ffffffffffffffffffffffffffffffffffffffff021916908373ffffffffffffffffffffffffffffffffffffffff1602179055508173ffffffffffffffffffffffffffffffffffffffff168173ffffffffffffffffffffffffffffffffffffffff167f8be0079c531659141344cd1fd0a4f28419497f9722a3daafe3b4186f6b6457e060405160405180910390a35050565b5f5ffd5b5f73ffffffffffffffffffffffffffffffffffffffff82169050919050565b5f61027d82610254565b9050919050565b61028d81610273565b8114610297575f5ffd5b50565b5f815190506102a881610284565b92915050565b5f602082840312156102c3576102c2610250565b5b5f6102d08482850161029a565b91505092915050565b5f81519050919050565b7f4e487b71000000000000000000000000000000000000000000000000000000005f52604160045260245ffd5b7f4e487b71000000000000000000000000000000000000000000000000000000005f52602260045260245ffd5b5f600282049050600182168061035457607f821691505b60208210810361036757610366610310565b5b50919050565b5f819050815f5260205f209050919050565b5f6020601f8301049050919050565b5f82821b905092915050565b5f600883026103c97fffffffffffffffffffffffffffffffffffffffffffffffffffffffffffffffff8261038e565b6103d3868361038e565b95508019841693508086168417925050509392505050565b5f819050919050565b5f819050919050565b5f61041761041261040d846103eb565b6103f4565b6103eb565b9050919050565b5f819050919050565b610430836103fd565b61044461043c8261041e565b84845461039a565b825550505050565b5f5f905090565b61045b61044c565b610466818484610427565b505050565b5b818110156104895761047e5f82610453565b60018101905061046c565b5050565b601f8211156104ce5761049f8161036d565b6104a88461037f565b810160208510156104b7578190505b6104cb6104c38561037f565b83018261046b565b50505b505050565b5f82821c905092915050565b5f6104ee5f19846008026104d3565b1980831691505092915050565b5f61050683836104df565b9150826002028217905092915050565b61051f826102d9565b67ffffffffffffffff811115610538576105376102e3565b5b610542825461033d565b61054d82828561048d565b5f60209050601f83116001811461057e575f841561056c578287015190505b61057685826104fb565b8655506105dd565b601f19841661058c8661036d565b5f5b828110156105b35784890151825560018201915060208501945060208101905061058e565b868310156105d057848901516105cc601f8916826104df565b8355505b6001600288020188555050505b505050505050565b6105ee81610273565b82525050565b5f6020820190506106075f8301846105e5565b92915050565b6128498061061a5f395ff3fe608060405234801561000f575f5ffd5b506004361061012a575f3560e01c80638da5cb5b116100ab578063c840a7b31161006f578063c840a7b314610318578063c87b56dd14610348578063e86f636714610378578063e985e9c5146103a8578063f2fde38b146103d85761012a565b80638da5cb5b1461028657806395d89b41146102a4578063a22cb465146102c2578063b88d4fde146102de578063c45a0155146102fa5761012a565b806323b872dd116100f257806323b872dd146101e457806342842e0e146102005780636352211e1461021c57806370a082311461024c578063715018a61461027c5761012a565b806301ffc9a71461012e57806306fdde031461015e578063081812fc1461017c578063095ea7b3146101ac57806318e97fd1146101c8575b5f5ffd5b61014860048036038101906101439190611c5c565b6103f4565b6040516101559190611ca1565b60405180910390f35b610166610405565b6040516101739190611d2a565b60405180910390f35b61019660048036038101906101919190611d7d565b610494565b6040516101a39190611de7565b60405180910390f35b6101c660048036038101906101c19190611e2a565b6104af565b005b6101e260048036038101906101dd9190611f94565b6104c5565b005b6101fe60048036038101906101f99190611fee565b610559565b005b61021a60048036038101906102159190611fee565b61058b565b005b61023660048036038101906102319190611d7d565b6105aa565b6040516102439190611de7565b60405180910390f35b6102666004803603810190610261919061203e565b6105bb565b6040516102739190612078565b60405180910390f35b610284610671565b005b61028e610684565b60405161029b9190611de7565b60405180910390f35b6102ac6106ac565b6040516102b99190611d2a565b60405180910390f35b6102dc60048036038101906102d791906120bb565b61073c565b005b6102f860048036038101906102f39190612197565b610752565b005b610302610777565b60405161030f9190611de7565b60405180910390f35b610332600480360381019061032d9190611d7d565b61079c565b60405161033f9190612078565b60405180910390f35b610362600480360381019061035d9190611d7d565b6107b1565b60405161036f9190611d2a565b60405180910390f35b610392600480360381019061038d9190612217565b6107c3565b60405161039f9190612078565b60405180910390f35b6103c260048036038101906103bd91906122c6565b6108fe565b6040516103cf9190611ca1565b60405180910390f35b6103f260048036038101906103ed919061203e565b61098c565b005b5f6103fe82610a10565b9050919050565b60605f805461041390612331565b80601f016020809104026020016040519081016040528092919081815260200182805461043f90612331565b801561048a5780601f106104615761010080835404028352916020019161048a565b820191905f5260205f20905b81548152906001019060200180831161046d57829003601f168201915b5050505050905090565b5f61049e82610a70565b506104a882610af6565b9050919050565b6104c182826104bc610b2f565b610b36565b5050565b60095f9054906101000a900473ffffffffffffffffffffffffffffffffffffffff1673ffffffffffffffffffffffffffffffffffffffff163373ffffffffffffffffffffffffffffffffffffffff161461054b576040517fcdea278900000000000000000000000000000000000000000000000000000000815260040160405180910390fd5b6105558282610b48565b5050565b6040517fc1b8200900000000000000000000000000000000000000000000000000000000815260040160405180910390fd5b6105a583838360405180602001604052805f815250610752565b505050565b5f6105b482610a70565b9050919050565b5f5f73ffffffffffffffffffffffffffffffffffffffff168273ffffffffffffffffffffffffffffffffffffffff160361062c575f6040517f89c62b640000000000000000000000000000000000000000000000000000000081526004016106239190611de7565b60405180910390fd5b60035f8373ffffffffffffffffffffffffffffffffffffffff1673ffffffffffffffffffffffffffffffffffffffff1681526020019081526020015f20549050919050565b610679610ba2565b6106825f610c29565b565b5f60085f9054906101000a900473ffffffffffffffffffffffffffffffffffffffff16905090565b6060600180546106bb90612331565b80601f01602080910402602001604051908101604052809291908181526020018280546106e790612331565b80156107325780601f1061070957610100808354040283529160200191610732565b820191905f5260205f20905b81548152906001019060200180831161071557829003601f168201915b5050505050905090565b61074e610747610b2f565b8383610cec565b5050565b61075d848484610559565b610771610768610b2f565b85858585610e55565b50505050565b60095f9054906101000a900473ffffffffffffffffffffffffffffffffffffffff1681565b600a602052805f5260405f205f915090505481565b60606107bc82611001565b9050919050565b5f60095f9054906101000a900473ffffffffffffffffffffffffffffffffffffffff1673ffffffffffffffffffffffffffffffffffffffff163373ffffffffffffffffffffffffffffffffffffffff161461084a576040517fcdea278900000000000000000000000000000000000000000000000000000000815260040160405180910390fd5b61085261110c565b5f600b5f8154809291906108659061238e565b9190505590506108758782611152565b61087f8184610b48565b85600a5f8381526020019081526020015f208190555085818873ffffffffffffffffffffffffffffffffffffffff167f86e8fcf7217f872b9137e970b2070ff0ed3ceccb01f9af1539ae6bbb20e7c1588888886040516108e1939291906123d5565b60405180910390a4809150506108f561116f565b95945050505050565b5f60055f8473ffffffffffffffffffffffffffffffffffffffff1673ffffffffffffffffffffffffffffffffffffffff1681526020019081526020015f205f8373ffffffffffffffffffffffffffffffffffffffff1673ffffffffffffffffffffffffffffffffffffffff1681526020019081526020015f205f9054906101000a900460ff16905092915050565b610994610ba2565b5f73ffffffffffffffffffffffffffffffffffffffff168173ffffffffffffffffffffffffffffffffffffffff1603610a04575f6040517f1e4fbdf70000000000000000000000000000000000000000000000000000000081526004016109fb9190611de7565b60405180910390fd5b610a0d81610c29565b50565b5f634906490660e01b7bffffffffffffffffffffffffffffffffffffffffffffffffffffffff1916827bffffffffffffffffffffffffffffffffffffffffffffffffffffffff19161480610a695750610a6882611179565b5b9050919050565b5f5f610a7b8361125a565b90505f73ffffffffffffffffffffffffffffffffffffffff168173ffffffffffffffffffffffffffffffffffffffff1603610aed57826040517f7e273289000000000000000000000000000000000000000000000000000000008152600401610ae49190612078565b60405180910390fd5b80915050919050565b5f60045f8381526020019081526020015f205f9054906101000a900473ffffffffffffffffffffffffffffffffffffffff169050919050565b5f33905090565b610b438383836001611293565b505050565b8060065f8481526020019081526020015f209081610b6691906125b8565b507ff8e1a15aba9398e019f0b49df1a4fde98ee17ae345cb5f6b5e2c27f5033e8ce782604051610b969190612078565b60405180910390a15050565b610baa610b2f565b73ffffffffffffffffffffffffffffffffffffffff16610bc8610684565b73ffffffffffffffffffffffffffffffffffffffff1614610c2757610beb610b2f565b6040517f118cdaa7000000000000000000000000000000000000000000000000000000008152600401610c1e9190611de7565b60405180910390fd5b565b5f60085f9054906101000a900473ffffffffffffffffffffffffffffffffffffffff1690508160085f6101000a81548173ffffffffffffffffffffffffffffffffffffffff021916908373ffffffffffffffffffffffffffffffffffffffff1602179055508173ffffffffffffffffffffffffffffffffffffffff168173ffffffffffffffffffffffffffffffffffffffff167f8be0079c531659141344cd1fd0a4f28419497f9722a3daafe3b4186f6b6457e060405160405180910390a35050565b5f73ffffffffffffffffffffffffffffffffffffffff168273ffffffffffffffffffffffffffffffffffffffff1603610d5c57816040517f5b08ba18000000000000000000000000000000000000000000000000000000008152600401610d539190611de7565b60405180910390fd5b8060055f8573ffffffffffffffffffffffffffffffffffffffff1673ffffffffffffffffffffffffffffffffffffffff1681526020019081526020015f205f8473ffffffffffffffffffffffffffffffffffffffff1673ffffffffffffffffffffffffffffffffffffffff1681526020019081526020015f205f6101000a81548160ff0219169083151502179055508173ffffffffffffffffffffffffffffffffffffffff168373ffffffffffffffffffffffffffffffffffffffff167f17307eab39ab6107e8899845ad3d59bd9653f200f220920489ca2b5937696c3183604051610e489190611ca1565b60405180910390a3505050565b5f8373ffffffffffffffffffffffffffffffffffffffff163b1115610ffa578273ffffffffffffffffffffffffffffffffffffffff1663150b7a02868685856040518563ffffffff1660e01b8152600401610eb394939291906126d9565b6020604051808303815f875af1925050508015610eee57506040513d601f19601f82011682018060405250810190610eeb9190612737565b60015b610f6f573d805f8114610f1c576040519150601f19603f3d011682016040523d82523d5f602084013e610f21565b606091505b505f815103610f6757836040517f64a0ae92000000000000000000000000000000000000000000000000000000008152600401610f5e9190611de7565b60405180910390fd5b805181602001fd5b63150b7a0260e01b7bffffffffffffffffffffffffffffffffffffffffffffffffffffffff1916817bffffffffffffffffffffffffffffffffffffffffffffffffffffffff191614610ff857836040517f64a0ae92000000000000000000000000000000000000000000000000000000008152600401610fef9190611de7565b60405180910390fd5b505b5050505050565b606061100c82610a70565b505f60065f8481526020019081526020015f20805461102a90612331565b80601f016020809104026020016040519081016040528092919081815260200182805461105690612331565b80156110a15780601f10611078576101008083540402835291602001916110a1565b820191905f5260205f20905b81548152906001019060200180831161108457829003601f168201915b505050505090505f6110b1611452565b90505f8151036110c5578192505050611107565b5f825111156110f95780826040516020016110e192919061279c565b60405160208183030381529060405292505050611107565b61110284611468565b925050505b919050565b600260075403611148576040517f3ee5aeb500000000000000000000000000000000000000000000000000000000815260040160405180910390fd5b6002600781905550565b61116b828260405180602001604052805f8152506114ce565b5050565b6001600781905550565b5f7f80ac58cd000000000000000000000000000000000000000000000000000000007bffffffffffffffffffffffffffffffffffffffffffffffffffffffff1916827bffffffffffffffffffffffffffffffffffffffffffffffffffffffff1916148061124357507f5b5e139f000000000000000000000000000000000000000000000000000000007bffffffffffffffffffffffffffffffffffffffffffffffffffffffff1916827bffffffffffffffffffffffffffffffffffffffffffffffffffffffff1916145b806112535750611252826114f1565b5b9050919050565b5f60025f8381526020019081526020015f205f9054906101000a900473ffffffffffffffffffffffffffffffffffffffff169050919050565b80806112cb57505f73ffffffffffffffffffffffffffffffffffffffff168273ffffffffffffffffffffffffffffffffffffffff1614155b156113fd575f6112da84610a70565b90505f73ffffffffffffffffffffffffffffffffffffffff168373ffffffffffffffffffffffffffffffffffffffff161415801561134457508273ffffffffffffffffffffffffffffffffffffffff168173ffffffffffffffffffffffffffffffffffffffff1614155b8015611357575061135581846108fe565b155b1561139957826040517fa9fbf51f0000000000000000000000000000000000000000000000000000000081526004016113909190611de7565b60405180910390fd5b81156113fb57838573ffffffffffffffffffffffffffffffffffffffff168273ffffffffffffffffffffffffffffffffffffffff167f8c5be1e5ebec7d5bd14f71427d1e84f3dd0314c0f7b2291e5b200ac8c7c3b92560405160405180910390a45b505b8360045f8581526020019081526020015f205f6101000a81548173ffffffffffffffffffffffffffffffffffffffff021916908373ffffffffffffffffffffffffffffffffffffffff16021790555050505050565b606060405180602001604052805f815250905090565b606061147382610a70565b505f61147d611452565b90505f81511161149b5760405180602001604052805f8152506114c6565b806114a58461155a565b6040516020016114b692919061279c565b6040516020818303038152906040525b915050919050565b6114d88383611624565b6114ec6114e3610b2f565b5f858585610e55565b505050565b5f7f01ffc9a7000000000000000000000000000000000000000000000000000000007bffffffffffffffffffffffffffffffffffffffffffffffffffffffff1916827bffffffffffffffffffffffffffffffffffffffffffffffffffffffff1916149050919050565b60605f600161156884611717565b0190505f8167ffffffffffffffff81111561158657611585611e70565b5b6040519080825280601f01601f1916602001820160405280156115b85781602001600182028036833780820191505090505b5090505f82602001820190505b600115611619578080600190039150507f3031323334353637383961626364656600000000000000000000000000000000600a86061a8153600a858161160e5761160d6127bf565b5b0494505f85036115c5575b819350505050919050565b5f73ffffffffffffffffffffffffffffffffffffffff168273ffffffffffffffffffffffffffffffffffffffff1603611694575f6040517f64a0ae9200000000000000000000000000000000000000000000000000000000815260040161168b9190611de7565b60405180910390fd5b5f6116a083835f611868565b90505f73ffffffffffffffffffffffffffffffffffffffff168173ffffffffffffffffffffffffffffffffffffffff1614611712575f6040517f73c6ac6e0000000000000000000000000000000000000000000000000000000081526004016117099190611de7565b60405180910390fd5b505050565b5f5f5f90507a184f03e93ff9f4daa797ed6e38ed64bf6a1f0100000000000000008310611773577a184f03e93ff9f4daa797ed6e38ed64bf6a1f0100000000000000008381611769576117686127bf565b5b0492506040810190505b6d04ee2d6d415b85acef810000000083106117b0576d04ee2d6d415b85acef810000000083816117a6576117a56127bf565b5b0492506020810190505b662386f26fc1000083106117df57662386f26fc1000083816117d5576117d46127bf565b5b0492506010810190505b6305f5e1008310611808576305f5e10083816117fe576117fd6127bf565b5b0492506008810190505b612710831061182d576127108381611823576118226127bf565b5b0492506004810190505b606483106118505760648381611846576118456127bf565b5b0492506002810190505b600a831061185f576001810190505b80915050919050565b5f5f6118738461125a565b90505f73ffffffffffffffffffffffffffffffffffffffff168373ffffffffffffffffffffffffffffffffffffffff16146118b4576118b3818486611a73565b5b5f73ffffffffffffffffffffffffffffffffffffffff168173ffffffffffffffffffffffffffffffffffffffff161461193f576118f35f855f5f611293565b600160035f8373ffffffffffffffffffffffffffffffffffffffff1673ffffffffffffffffffffffffffffffffffffffff1681526020019081526020015f205f82825403925050819055505b5f73ffffffffffffffffffffffffffffffffffffffff168573ffffffffffffffffffffffffffffffffffffffff16146119be57600160035f8773ffffffffffffffffffffffffffffffffffffffff1673ffffffffffffffffffffffffffffffffffffffff1681526020019081526020015f205f82825401925050819055505b8460025f8681526020019081526020015f205f6101000a81548173ffffffffffffffffffffffffffffffffffffffff021916908373ffffffffffffffffffffffffffffffffffffffff160217905550838573ffffffffffffffffffffffffffffffffffffffff168273ffffffffffffffffffffffffffffffffffffffff167fddf252ad1be2c89b69c2b068fc378daa952ba7f163c4a11628f55a4df523b3ef60405160405180910390a4809150509392505050565b611a7e838383611b36565b611b31575f73ffffffffffffffffffffffffffffffffffffffff168373ffffffffffffffffffffffffffffffffffffffff1603611af257806040517f7e273289000000000000000000000000000000000000000000000000000000008152600401611ae99190612078565b60405180910390fd5b81816040517f177e802f000000000000000000000000000000000000000000000000000000008152600401611b289291906127ec565b60405180910390fd5b505050565b5f5f73ffffffffffffffffffffffffffffffffffffffff168373ffffffffffffffffffffffffffffffffffffffff1614158015611bed57508273ffffffffffffffffffffffffffffffffffffffff168473ffffffffffffffffffffffffffffffffffffffff161480611bae5750611bad84846108fe565b5b80611bec57508273ffffffffffffffffffffffffffffffffffffffff16611bd483610af6565b73ffffffffffffffffffffffffffffffffffffffff16145b5b90509392505050565b5f604051905090565b5f5ffd5b5f5ffd5b5f7fffffffff0000000000000000000000000000000000000000000000000000000082169050919050565b611c3b81611c07565b8114611c45575f5ffd5b50565b5f81359050611c5681611c32565b92915050565b5f60208284031215611c7157611c70611bff565b5b5f611c7e84828501611c48565b91505092915050565b5f8115159050919050565b611c9b81611c87565b82525050565b5f602082019050611cb45f830184611c92565b92915050565b5f81519050919050565b5f82825260208201905092915050565b8281835e5f83830152505050565b5f601f19601f8301169050919050565b5f611cfc82611cba565b611d068185611cc4565b9350611d16818560208601611cd4565b611d1f81611ce2565b840191505092915050565b5f6020820190508181035f830152611d428184611cf2565b905092915050565b5f819050919050565b611d5c81611d4a565b8114611d66575f5ffd5b50565b5f81359050611d7781611d53565b92915050565b5f60208284031215611d9257611d91611bff565b5b5f611d9f84828501611d69565b91505092915050565b5f73ffffffffffffffffffffffffffffffffffffffff82169050919050565b5f611dd182611da8565b9050919050565b611de181611dc7565b82525050565b5f602082019050611dfa5f830184611dd8565b92915050565b611e0981611dc7565b8114611e13575f5ffd5b50565b5f81359050611e2481611e00565b92915050565b5f5f60408385031215611e4057611e3f611bff565b5b5f611e4d85828601611e16565b9250506020611e5e85828601611d69565b9150509250929050565b5f5ffd5b5f5ffd5b7f4e487b71000000000000000000000000000000000000000000000000000000005f52604160045260245ffd5b611ea682611ce2565b810181811067ffffffffffffffff82111715611ec557611ec4611e70565b5b80604052505050565b5f611ed7611bf6565b9050611ee38282611e9d565b919050565b5f67ffffffffffffffff821115611f0257611f01611e70565b5b611f0b82611ce2565b9050602081019050919050565b828183375f83830152505050565b5f611f38611f3384611ee8565b611ece565b905082815260208101848484011115611f5457611f53611e6c565b5b611f5f848285611f18565b509392505050565b5f82601f830112611f7b57611f7a611e68565b5b8135611f8b848260208601611f26565b91505092915050565b5f5f60408385031215611faa57611fa9611bff565b5b5f611fb785828601611d69565b925050602083013567ffffffffffffffff811115611fd857611fd7611c03565b5b611fe485828601611f67565b9150509250929050565b5f5f5f6060848603121561200557612004611bff565b5b5f61201286828701611e16565b935050602061202386828701611e16565b925050604061203486828701611d69565b9150509250925092565b5f6020828403121561205357612052611bff565b5b5f61206084828501611e16565b91505092915050565b61207281611d4a565b82525050565b5f60208201905061208b5f830184612069565b92915050565b61209a81611c87565b81146120a4575f5ffd5b50565b5f813590506120b581612091565b92915050565b5f5f604083850312156120d1576120d0611bff565b5b5f6120de85828601611e16565b92505060206120ef858286016120a7565b9150509250929050565b5f67ffffffffffffffff82111561211357612112611e70565b5b61211c82611ce2565b9050602081019050919050565b5f61213b612136846120f9565b611ece565b90508281526020810184848401111561215757612156611e6c565b5b612162848285611f18565b509392505050565b5f82601f83011261217e5761217d611e68565b5b813561218e848260208601612129565b91505092915050565b5f5f5f5f608085870312156121af576121ae611bff565b5b5f6121bc87828801611e16565b94505060206121cd87828801611e16565b93505060406121de87828801611d69565b925050606085013567ffffffffffffffff8111156121ff576121fe611c03565b5b61220b8782880161216a565b91505092959194509250565b5f5f5f5f5f60a086880312156122305761222f611bff565b5b5f61223d88828901611e16565b955050602061224e88828901611d69565b945050604086013567ffffffffffffffff81111561226f5761226e611c03565b5b61227b88828901611f67565b935050606061228c88828901611d69565b925050608086013567ffffffffffffffff8111156122ad576122ac611c03565b5b6122b988828901611f67565b9150509295509295909350565b5f5f604083850312156122dc576122db611bff565b5b5f6122e985828601611e16565b92505060206122fa85828601611e16565b9150509250929050565b7f4e487b71000000000000000000000000000000000000000000000000000000005f52602260045260245ffd5b5f600282049050600182168061234857607f821691505b60208210810361235b5761235a612304565b5b50919050565b7f4e487b71000000000000000000000000000000000000000000000000000000005f52601160045260245ffd5b5f61239882611d4a565b91507fffffffffffffffffffffffffffffffffffffffffffffffffffffffffffffffff82036123ca576123c9612361565b5b600182019050919050565b5f6060820190508181035f8301526123ed8186611cf2565b90506123fc6020830185612069565b818103604083015261240e8184611cf2565b9050949350505050565b5f819050815f5260205f209050919050565b5f6020601f8301049050919050565b5f82821b905092915050565b5f600883026124747fffffffffffffffffffffffffffffffffffffffffffffffffffffffffffffffff82612439565b61247e8683612439565b95508019841693508086168417925050509392505050565b5f819050919050565b5f6124b96124b46124af84611d4a565b612496565b611d4a565b9050919050565b5f819050919050565b6124d28361249f565b6124e66124de826124c0565b848454612445565b825550505050565b5f5f905090565b6124fd6124ee565b6125088184846124c9565b505050565b5b8181101561252b576125205f826124f5565b60018101905061250e565b5050565b601f8211156125705761254181612418565b61254a8461242a565b81016020851015612559578190505b61256d6125658561242a565b83018261250d565b50505b505050565b5f82821c905092915050565b5f6125905f1984600802612575565b1980831691505092915050565b5f6125a88383612581565b9150826002028217905092915050565b6125c182611cba565b67ffffffffffffffff8111156125da576125d9611e70565b5b6125e48254612331565b6125ef82828561252f565b5f60209050601f831160018114612620575f841561260e578287015190505b612618858261259d565b86555061267f565b601f19841661262e86612418565b5f5b8281101561265557848901518255600182019150602085019450602081019050612630565b86831015612672578489015161266e601f891682612581565b8355505b6001600288020188555050505b505050505050565b5f81519050919050565b5f82825260208201905092915050565b5f6126ab82612687565b6126b58185612691565b93506126c5818560208601611cd4565b6126ce81611ce2565b840191505092915050565b5f6080820190506126ec5f830187611dd8565b6126f96020830186611dd8565b6127066040830185612069565b818103606083015261271881846126a1565b905095945050505050565b5f8151905061273181611c32565b92915050565b5f6020828403121561274c5761274b611bff565b5b5f61275984828501612723565b91505092915050565b5f81905092915050565b5f61277682611cba565b6127808185612762565b9350612790818560208601611cd4565b80840191505092915050565b5f6127a7828561276c565b91506127b3828461276c565b91508190509392505050565b7f4e487b71000000000000000000000000000000000000000000000000000000005f52601260045260245ffd5b5f6040820190506127ff5f830185611dd8565b61280c6020830184612069565b939250505056fea26469706673582212206c879ef6f202c8fbfcfa363b004624ff5ae3bfa6be423da5f0d92c7af7c5db6e64736f6c634300081c0033","linkReferences":{}},"methodIdentifiers":{"STAKE_AMOUNT()":"faf5625f","activityEndTime()":"5f20e6ba","addMember(address,uint256,string,uint256,string)":"1d11e202","addMemberNFTself(uint256,string,uint256,string)":"5ea2c238","checkUpkeep(bytes)":"6e04ff0d","createTeam(string,string)":"01a682c1","getTeamMemberIds(uint256)":"f2d72c3a","memberNFT()":"8e851a7c","owner()":"8da5cb5b","performUpkeep(bytes)":"4585e33b","renounceOwnership()":"715018a6","teamMemberIds(uint256,uint256)":"51f25af0","teamNFT()":"aa6da894","teamStakes(uint256)":"a04b0a13","transferOwnership(address)":"f2fde38b","updateActivityEndTime(uint256)":"8844d002","updateTeamMemberURIs(uint256,string,string[])":"adc888d3"},"id":40}